:020000040800F2
:1000000000200020D1080008BD080008BF08000833
:1000100000000000000000000000000000000000E0
:10002000000000000000000000000000C1080008FF
:100030000000000000000000C3080008C508000818
:10004000210900080000000021090008210900081A
:1000500021090008210900082109000821090008D8
:1000600000000000210900082109000821090008FA
:1000700021090008210900082109000800000000EA
:10008000210900080000000000000000210900080C
:1000900000000000210900082109000821090008CA
:1000A000D1030008210900082109000821090008DE
:0800B000210900080000000016
:1000B80010B5064C2378002B07D1054B002B02D036
:1000C800044800E000BF0123237010BD4400002055
:1000D80000000000E0110008044B10B5002B03D00D
:1000E8000349044800E000BF10BDC04600000000FE
:1000F80048000020E0110008002243088B4274D316
:1001080003098B425FD3030A8B4244D3030B8B4210
:1001180028D3030C8B420DD3FF22090212BA030C19
:100128008B4202D31212090265D0030B8B4219D3FA
:1001380000E0090AC30B8B4201D3CB03C01A52411A
:10014800830B8B4201D38B03C01A5241430B8B4262
:1001580001D34B03C01A5241030B8B4201D30B034B
:10016800C01A5241C30A8B4201D3CB02C01A524172
:10017800830A8B4201D38B02C01A5241430A8B4235
:1001880001D34B02C01A5241030A8B4201D30B021E
:10019800C01A5241CDD2C3098B4201D3CB01C01A38
:1001A800524183098B4201D38B01C01A5241430942
:1001B8008B4201D34B01C01A524103098B4201D330
:1001C8000B01C01A5241C3088B4201D3CB00C01A9D
:1001D800524183088B4201D38B00C01A5241430815
:1001E8008B4201D34B00C01A5241411A00D201463A
:1001F800524110467047FFE701B5002000F006F8AD
:1002080002BDC0460029F7D076E770477047C04660
:100218000B480C4B10B5036080235B008380023BC6
:10022800FF3B036121334361603383617F3B03629A
:1002380000F05EFC002801D000F022FB10BDC04693
:100248006000002000300240084B026882B09A42E9
:1002580009D18021064B49019A6B0A439A639B6B2B
:100268000B400193019B02B07047C046003002402A
:1002780000100240044B02689A4204D1034A044920
:10028800936B0B40936370470030024000100240AC
:10029800FFEFFFFF0121054B82B05A6B0A435A63F7
:1002A8005B6B0B400193019B02B07047001002404A
:1002B800F0B5012691B0314D1C22002109A800F0AB
:1002C8005FFF6B6BA02033436B636B6B0024334081
:1002D8000293029B80231B0106270393022303A991
:1002E800C0050493059406960794089700F04AFE03
:1002F8008023A0205B010393022303A9C005049374
:10030800059406960794089700F03CFE8022C621C3
:10031800FF20EB6BD2031343EB63EB6B89001340B5
:100328000193019B164B5A5882435A50802252041B
:100338001A60144B09940A93A8230B940C940E94F6
:100348000F94114C09A920000D9300F093FE80230F
:1003580062689B0413436360E3680C4A1340E360DC
:10036800E3680B4A1340E36023680A4A134023609A
:100378002368094A1340236011B0F0BD0010024001
:1003880000E100E06621C1000058004001F8FFFFCD
:10039800FF7FFFFFFFFFF7FFFFFFFDFF064B10B5D5
:1003A800064A074907481C6800F0F5FBC043001BD4
:1003B80043425841C0B210BDFC770008FC5F000002
:1003C800001800086000002008222E4B70B59969BB
:1003D800114235D0D8690243DA619A692A48D203B2
:1003E80028D502221C6822431A60032202702022A8
:1003F800186802431A60202001423FD0DA6902439C
:10040800DA61214A1178CCB203292BD0042C10D1FF
:1004180000241E490C80012111701A6882431A6059
:100428008022596812020A435A60082219680A434E
:100438001A6070BD04241A6822431A600470D6E753
:100448008A07D8D404242142D5D0104E586A32885D
:1004580095B2013292B23280C2B20D4842550A4A70
:100468001470C8E79821D86949000143D961082167
:1004780018680143196000231370DAE70122054B5D
:100488001A80D6E7005800408E0000209808002007
:100498008F0000208C00002070B51A4C1A4D2000E7
:1004A80000F0C0FD6368194A03211340012263600C
:1004B800236893432360236807329343236000240F
:1004C800134B2C601A680A401A60124A0439101D2E
:1004D800C167C020400011500F4A146654669466E4
:1004E800D4668022996952000A439A6100F0FCFDA3
:1004F8000A4800F037FB00F011FA2C606C60AC6021
:1005080070BDC0460058004010E000E0FFFFFFFD4E
:100518000000014000E100E00018024060000020F7
:1005280010B5FFF73BFF002817D00C4C0C4A236886
:1005380013408022920593420FD1FFF7ADFF094B7C
:100548009C60094B1A68094B1A601A68084B1A60B4
:10055800226882F308881B68984710BD00180008B5
:100568000000FE2F00ED00E00418000888000020BD
:10057800840000200023F0B58BB00593434B5C78D2
:100588009878DA7819795D799B792D025B199BB295
:10059800E4B2C0B2D2B2C9B2002B36D024060004ED
:1005A8003B4B044312020C4314431A69520305D50A
:1005B800962238499200A150374A1A6100F040FB50
:1005C8000028FBD102230693F8231B06E318DB0A55
:1005D800089301230993322000F044FB05A906A8DB
:1005E80000F0CEFB0028F6D12C4B01279C4201D805
:1005F8000227FF370023013FE2180192002F0ED196
:1006080000F09CFB322000F02DFB002318001F494E
:10061800234AC85401339342FBD10BB0F0BD1A00F2
:10062800083200920099194A515C02911900093167
:10063800555C0131505C0131515C2D020391190068
:100648000C31515C00048C4619000D31565C0F3397
:100658000131515CD35C029A05431543039A360273
:10066800120615436246090416430E431B061E4331
:10067800322000F0F7FA2A0033000120019900F037
:1006880029FB0028F4D1009B013FB5E78F0000202B
:100698000020024023300000FB830000FFF7FFFF2B
:1006A8000808000070B5802508246D04134B1A78DB
:1006B800012AFCD1124AD567BFF34F8FBFF36F8F62
:1006C80000221A700F4B1B78DAB2062B0FD0772A4C
:1006D80010D00D4B1D600D4B1A6822431A60012281
:1006E80019680A431A601A6822431A60DEE7FFF79E
:1006F80041FFEEE7FFF714FFEBE7C0468E0000204E
:1007080004E100E08F00002000E100E00058004014
:1007180007200223234A10B5116881430B43136055
:1007280013680340022BFBD180221F4B520019682B
:100738000A431A608022D20019681142FCD0D96895
:100748001A4A11401A4A0A43DA6080221968520488
:100758000A431A608022D96852050A43DA60802267
:10076800920419681142FCD09A6812490A409A60AA
:10077800072299689143053A0A4338219A609A6892
:100788000A40102AFBD19A680B490C480A409A6023
:1007980000F0F0FC032000F0D5F8002801D072B674
:1007A800FEE710BD00200240001002408C80FF1FB1
:1007B80002080020FFF0FFFFFF8FFFFF0090D0032B
:1007C800F0B501258027A02687B000F0E3F8FFF7F1
:1007D8009FFFFFF75FFDFFF71BFD1422002101A813
:1007E80000F0CEFC244BF6055A6B3F012A435A63AE
:1007F8005B6B00222B40390030000093009B00F017
:10080800BBFB8021002400223000490100F0B4FB2A
:10081800300001A9029404940197039500F0FAFAB4
:10082800802330005B0101A901930294049403958D
:1008380000F0F0FA9620400000F086FC33690F4C77
:100848003B420FD180223369520113420AD1FFF78C
:100858002FFD23681D432560082322681343236066
:10086800FFF720FFFFF75CFEFFF722FD0123226858
:1008780013432360F0E7C0460010024000580040D0
:1008880072B6FEE701210A4B82B01A6C0A431A6459
:100898001A6C0A4080210092009ADA6B49050A43D3
:1008A800DA63DB6B0B400193019B02B07047C046D3
:1008B80000100240FEE7FEE77047704710B500F0F1
:1008C8007DF810BD704700000D488546FFF7FAFF18
:1008D8000C480D490D4A002302E0D458C450043393
:1008E800C4188C42F9D30A4A0A4C002301E0136069
:1008F8000432A242FBD300F04BFCFFF761FFFEE796
:1009080000200020000000204400002010120008F1
:1009180044000020BC080020FEE77047012210B503
:100928000024074B5242DA62DC621A631C639A6243
:100938009C625A625C62FFF7F0FF200010BDC0465F
:100948000010024070B5104B05001978002901D13C
:10095800012070BDFA208000FFF7CEFB0B4C010090
:100968002068FFF7C9FB00F065F8041EF0D1032DDD
:10097800EED8020001202900404200F031F8044B73
:1009880020001D60E5E7C0460400002000000020AC
:10099800080000208023084A5B00116810B50B434B
:1009A80003201360FFF7CEFF041E03D1FFF76AFF91
:1009B800200010BD0124FBE700200240034A044B3D
:1009C80011681B785B1813607047C0469C080020AC
:1009D80004000020014B18687047C0469C0800209E
:1009E80010B5FF2403220B0021000240D2009140E1
:1009F8009B012340C943934000280ADBC0240B4ACB
:100A0800800880008018A40002590A40134303514B
:100A180010BD0F2210400838054A80088000801851
:100A2800C26911401943C161F2E7C04600E100E024
:100A380000ED00E08022431E5204012093420DD2B3
:100A4800C021074A07485360036A09061B021B0AAC
:100A58000B43036200200723906013607047C04671
:100A680010E000E000ED00E0F7B50E009508AD00DD
:100A78006B1801930368019CB44209D10324160042
:100A88002640224219D0012E0FD14A5D1A7014E077
:100A98003478777824063F043C43F7783C43B778AA
:100AA80004363F023C431C60E5E76C18495D6278F8
:100AB80009020A431A80022E02D103681868FEBD93
:100AC800A278E3E7F0B50D00002600685408B442A8
:100AD80006D1D20702D5A400635A03800068F0BD8E
:100AE8002B886F881B043B43036001360435EEE70F
:100AF80010B5041E01D1012010BD437FDAB2002BCE
:100B080002D10277FFF7A0FB022363772379002B3A
:100B18001CD118212368124A5A619A688A439A603C
:100B280062792368002A19D1013A60211A619A680A
:100B380000208A4361690A4380219A609A688A433F
:100B4800A1690A439A6001236377D5E72000E26828
:100B5800A16800F045F80028E2D0CCE72269E4E774
:100B6800B71DC10470B504000120002C12D0637FAA
:100B7800D8B2022B0ED00223012200256377236806
:100B8800200099680A439A605D60FFF773FB2800AC
:100B98006577257770BD022370B543770400036835
:100BA80001209D6828439860206A022814D00328F1
:100BB80005D001280CD000200123637770BD920076
:100BC8008A18914201D11868F6E701C91860F8E758
:100BD8002000FFF749FFEFE72000FFF773FFEBE77F
:100BE80030B501250400280029420FD01F23013BFE
:100BF80022D30800D8402842F9D0102A15D0102A4C
:100C080005D8002A08D00120082A12D030BD0120BA
:100C1800182AFBD1062BF9D820684161182183686E
:100C28008B43134383600020F0E70120072BF3D99F
:100C3800ECE70F2BEAD8EFE70120102ADFD1E5E730
:100C48000020054B5A69824205DA044A9A60044A30
:100C58009A605869C00F7047002002402301674519
:100C6800AB89EFCDF8B50400FFF7B4FE8027060086
:100C78007F02144D2B693B4216D12A69124B110091
:100C88001248194028611A4217D18027FF022B69A0
:100C9800180038403B420FD0631CF8D0FFF79AFE8B
:100CA800801BA042F3D306E0631CE3D0FFF792FE5B
:100CB800801BA042DDD30320F8BD054B01205960FD
:100CC800FAE7C04600200240FA830000FB830000D8
:100CD800A0080020F7B5174E0193337804000D00E3
:100CE80002200092012B1ED00123FA20337000232A
:100CF80080007360FFF7B6FF002812D10E4F012C59
:100D080012D17B6923437B61009B2B60BFF36F8FFC
:100D1800019B6B60FA208000FFF7A4FF7B69A34367
:100D28007B6100233370FEBD2800009900F060FA53
:100D3800F0E7C046A008002000200240FA2010B5C5
:100D48008000FFF78FFF8022044B120659690A437F
:100D58005A615869C043C00F10BDC0460020024008
:100D6800044A05485369C90003401943034B0B4320
:100D7800536170470020024007E0FFFF02000100B6
:100D8800F7B5214F05003B7802240191012B1AD0B9
:100D98000123FA203B70002380007B60FFF762FF8D
:100DA800041E0ED104236B602B68042B0DD1FA208E
:100DB800164A174B516980000B435361FFF752FFE6
:100DC800040000233B702000FEBD0123019A5B4212
:100DD8001360AE68AB68EA689B18B3420CD96868C0
:100DE8003100FFF7BDFFFA208000FFF73BFF002826
:100DF80008D00400019B1E600221044A53698B43FA
:100E08005361DEE70136E5E7A00800200020024034
:100E1800040001000023F0B585B00A681400DC4026
:100E280001D105B0F0BD012514009D402C4000946F
:100E38002A4200D191E04A685F0094460322644642
:100E480022400324BC40E4430194541E012C2ED8B4
:100E58008668019C2640CC68BC4034438460446862
:100E68000126AC4325006446240934409C402C43A9
:100E78004460C568019C25408C68BC402C43C46014
:100E8800022A16D107250F261D40AD00AE40DC080A
:100E9800A40004190294246A03962600039CA6431E
:100EA80034000E69AE402643029C266201E0032A04
:100EB800DFD1BA400468019D25402A43C02402605E
:100EC8006246A402224248D0254A03259C08A40071
:100ED800A4180F221D40ED00AA40A027266EFF058A
:100EE80096430022B8420CD01E4F0132B84208D0B7
:100EF8001D4F0132B84204D01C4F0332B84200D112
:100F0800023AAA40674632432266154C009A266880
:100F1800009DD2433543FF0201D435001540674692
:100F280025606668009D3543BF0201D43500154031
:100F3800674665600E4C009DE66F3543BF0301D4DC
:100F4800350015406746E5670A4C009EE56F2E435D
:100F5800FF0301D415402E00E66701335DE7C04664
:100F6800001802400004005000080050000C005017
:100F78000818024004180240002A01D08161704715
:100F88008162FCE7F7B5020000260C682000F040FB
:100F980000D1FEBD01202300B0400340044233D0FD
:100FA800486803240090180058434443009DE443D4
:100FB800013D012D0BD88D689768454327403D4377
:100FC800CF6895605F4355689D433D4355600D6903
:100FD800D768454327403D43D560009D022D0DD17C
:100FE8004D690195FF2B11D805000F2745436F4325
:100FF800136ABB43019F6F433B431362136823404B
:10100800009C6043034313600136BEE70F271B0AA9
:101018005B435B435F43556ABD43019F5F433D4369
:101028005562EBE70E4A030090420BD180220D4B2C
:101038009203D96A0A43DA62DA6A0B4900200A4045
:10104800DA627047094A01209342FAD18022054B9F
:10105800D203D96A0A43DA62DA6A0549EEE7C0467A
:101068000054004000100240FFFFDFFF005800401E
:10107800FFFFBFFF0122036830B593430360CB68CD
:101088008D681B0204682B43144D2C4023430360D6
:101098004B680D69036103681A4302608368104A4C
:1010A8001340836084688B69E40A2B43E40223437A
:1010B8008360002D04D0802384681B02234383604F
:1010C8000368084C23400C682343036043681340BB
:1010D8004A6913434360002030BDC046FFE0FFFF6C
:1010E800FF7FFFFFFFFFCFFF8022154B52001968DB
:1010F8000A431A608022D20019681142FCD059684C
:10110800104A11408022D2010A435A6000228021ED
:101118009A600132FF321A60890218680842FCD1CD
:101128001A60802292041968080010401142FAD10E
:1011380080225201DA600122524298611A62704795
:1011480000100240FF80FFFF094A82B01368019334
:10115800019B431C591E8B41C01880235B02002849
:1011680001D102B0704711681942FCD00138F6E786
:1011780010E000E0014B18607047C04600000020F6
:1011880003008218934200D1704719700133F9E7C0
:1011980070B500260C4C0D4D641BA410A64209D155
:1011A800002600F019F80A4C0A4D641BA410A64248
:1011B80005D170BDB300EB5898470136EEE7B30090
:1011C800EB5898470136F2E70812000808120008A1
:1011D8000C12000808120008F8B5C046F8BC08BC94
:1011E8009E467047F8B5C046F8BC08BC9E46704796
:1011F80001B40248844601BC604700BF0D000020CE
:04120800E1000008F9
:04120C00B90000081D
:101210000024F400010000000400000080220C4BB8
:1012200030B55C69D20222435A61EFF3108272B684
:101230004C1CFF34401A0D68455004318C42FAD1E1
:101240008021490218690842FCD182F3108830BD20
:041250000020024038
:04000005080008D116
:00000001FF
