:020000040800F2
:1000000000200020D1080008BD080008BF08000833
:1000100000000000000000000000000000000000E0
:10002000000000000000000000000000C1080008FF
:100030000000000000000000C3080008C508000818
:10004000210900080000000021090008210900081A
:1000500021090008210900082109000821090008D8
:1000600000000000210900082109000821090008FA
:1000700021090008210900082109000800000000EA
:10008000210900080000000000000000210900080C
:1000900000000000210900082109000821090008CA
:1000A000D1030008210900082109000821090008DE
:1000B000210900080000000010B5064C2378002B31
:1000C00007D1054B002B02D0044800E000BF0123FC
:1000D000237010BD4400002000000000E011000863
:1000E000044B10B5002B03D00349044800E000BFC7
:1000F00010BDC0460000000048000020E0110008CC
:10010000002243088B4274D303098B425FD3030A56
:100110008B4244D3030B8B4228D3030C8B420DD369
:10012000FF22090212BA030C8B4202D312120902F7
:1001300065D0030B8B4219D300E0090AC30B8B4235
:1001400001D3CB03C01A5241830B8B4201D38B03E3
:10015000C01A5241430B8B4201D34B03C01A524188
:10016000030B8B4201D30B03C01A5241C30A8B42CB
:1001700001D3CB02C01A5241830A8B4201D38B02B6
:10018000C01A5241430A8B4201D34B02C01A52415A
:10019000030A8B4201D30B02C01A5241CDD2C309CC
:1001A0008B4201D3CB01C01A524183098B4201D348
:1001B0008B01C01A524143098B4201D34B01C01A33
:1001C000524103098B4201D30B01C01A5241C308AB
:1001D0008B4201D3CB00C01A524183088B4201D31A
:1001E0008B00C01A524143088B4201D34B00C01A06
:1001F0005241411A00D20146524110467047FFE772
:1002000001B5002000F006F802BDC0460029F7D075
:1002100076E770477047C0460B480C4B10B503603B
:1002200080235B008380023BFF3B036121334361FA
:10023000603383617F3B036200F05EFC002801D0E5
:1002400000F022FB10BDC0466000002000300240DC
:10025000084B026882B09A4209D18021064B4901BD
:100260009A6B0A439A639B6B0B400193019B02B00C
:100270007047C0460030024000100240044B026844
:100280009A4204D1034A0449936B0B40936370472D
:100290000030024000100240FFEFFFFF0121054B3C
:1002A00082B05A6B0A435A635B6B0B400193019B0C
:1002B00002B0704700100240F0B5012691B0314DF8
:1002C0001C22002109A800F05FFF6B6BA0203343C4
:1002D0006B636B6B002433400293029B80231B01F2
:1002E00006270393022303A9C005049305940696E9
:1002F0000794089700F04AFE8023A0205B01039337
:10030000022303A9C0050493059406960794089751
:1003100000F03CFE8022C621FF20EB6BD20313438A
:10032000EB63EB6B890013400193019B164B5A580A
:1003300082435A50802252041A60144B09940A9343
:10034000A8230B940C940E940F94114C09A920002F
:100350000D9300F093FE802362689B041343636057
:10036000E3680C4A1340E360E3680B4A1340E36020
:1003700023680A4A134023602368094A1340236014
:1003800011B0F0BD0010024000E100E06621C100A4
:100390000058004001F8FFFFFF7FFFFFFFFFF7FF5E
:1003A000FFFFFDFF064B10B5064A074907481C68CA
:1003B00000F0F5FBC043001B43425841C0B210BDE2
:1003C000FC770008FC5F00000018000860000020B7
:1003D00008222E4B70B59969114235D0D869024375
:1003E000DA619A692A48D20328D502221C6822437E
:1003F0001A60032202702022186802431A6020202B
:1004000001423FD0DA690243DA61214A1178CCB265
:1004100003292BD0042C10D100241E490C8001216B
:1004200011701A6882431A608022596812020A43C6
:100430005A60082219680A431A6070BD04241A68B9
:1004400022431A600470D6E78A07D8D404242142D4
:10045000D5D0104E586A328895B2013292B23280AD
:10046000C2B20D4842550A4A1470C8E79821D869AB
:1004700049000143D961082118680143196000232C
:100480001370DAE70122054B1A80D6E700580040C6
:100490008E000020980800208F0000208C00002093
:1004A00070B51A4C1A4D200000F0C0FD6368194A5F
:1004B0000321134001226360236893432360236870
:1004C0000732934323600024134B2C601A680A40C0
:1004D0001A60124A0439101DC167C0204000115033
:1004E0000F4A146654669466D46680229969520055
:1004F0000A439A6100F0FCFD0A4800F037FB00F067
:1005000011FA2C606C60AC6070BDC04600580040B1
:1005100010E000E0FFFFFFFD0000014000E100E00F
:10052000001802406000002010B5FFF73BFF0028D4
:1005300017D00C4C0C4A236813408022920593423A
:100540000FD1FFF7ADFF094B9C60094B1A68094BAF
:100550001A601A68084B1A60226882F308881B68C0
:10056000984710BD001800080000FE2F00ED00E0C5
:100570000418000888000020840000200023F0B543
:100580008BB00593434B5C789878DA7819795D796C
:100590009B792D025B199BB2E4B2C0B2D2B2C9B250
:1005A000002B36D0240600043B4B044312020C43BC
:1005B00014431A69520305D5962238499200A15076
:1005C000374A1A6100F040FB0028FBD10223069352
:1005D000F8231B06E318DB0A089301230993322052
:1005E00000F044FB05A906A800F0CEFB0028F6D1D8
:1005F0002C4B01279C4201D80227FF370023013FE3
:10060000E2180192002F0ED100F09CFB322000F086
:100610002DFB002318001F49234AC854013393427D
:10062000FBD10BB0F0BD1A00083200920099194AB4
:10063000515C029119000931555C0131505C013166
:10064000515C2D02039119000C31515C00048C4661
:1006500019000D31565C0F330131515CD35C029AA5
:1006600005431543039A36021206154362460904F0
:1006700016430E431B061E43322000F0F7FA2A00F1
:1006800033000120019900F029FB0028F4D1009BE0
:10069000013FB5E78F00002000200240233000001A
:1006A000FB830000FFF7FFFF0808000070B58025FE
:1006B00008246D04134B1A78012AFCD1124AD5671D
:1006C000BFF34F8FBFF36F8F00221A700F4B1B7851
:1006D000DAB2062B0FD0772A10D00D4B1D600D4BD0
:1006E0001A6822431A60012219680A431A601A68BC
:1006F00022431A60DEE7FFF741FFEEE7FFF714FF42
:10070000EBE7C0468E00002004E100E08F000020EF
:1007100000E100E00058004007200223234A10B502
:10072000116881430B43136013680340022BFBD114
:1007300080221F4B520019680A431A608022D2009F
:1007400019681142FCD0D9681A4A11401A4A0A4362
:10075000DA608022196852040A431A608022D9683C
:1007600052050A43DA608022920419681142FCD0D3
:100770009A6812490A409A60072299689143053A9B
:100780000A4338219A609A680A40102AFBD19A6875
:100790000B490C480A409A6000F0F0FC032000F07E
:1007A000D5F8002801D072B6FEE710BD0020024047
:1007B000001002408C80FF1F02080020FFF0FFFFA6
:1007C000FF8FFFFF0090D003F0B501258027A02602
:1007D00087B000F0E3F8FFF79FFFFFF75FFDFFF73B
:1007E0001BFD1422002101A800F0CEFC244BF605CD
:1007F0005A6B3F012A435A635B6B00222B4039003E
:1008000030000093009B00F0BBFB802100240022FD
:100810003000490100F0B4FB300001A902940494B7
:100820000197039500F0FAFA802330005B0101A9DB
:10083000019302940494039500F0F0FA962040008E
:1008400000F086FC33690F4C3B420FD180223369A4
:10085000520113420AD1FFF72FFD23681D43256083
:100860000823226813432360FFF720FFFFF75CFE95
:10087000FFF722FD0123226813432360F0E7C046FF
:10088000001002400058004072B6FEE701210A4BFA
:1008900082B01A6C0A431A641A6C0A4080210092D2
:1008A000009ADA6B49050A43DA63DB6B0B4001936C
:1008B000019B02B07047C04600100240FEE7FEE711
:1008C0007047704710B500F07DF810BD704700000C
:1008D0000D488546FFF7FAFF0C480D490D4A0023E5
:1008E00002E0D458C4500433C4188C42F9D30A4AE5
:1008F0000A4C002301E013600432A242FBD300F053
:100900004BFCFFF761FFFEE7002000200000002005
:10091000440000201012000844000020BC08002001
:10092000FEE77047012210B50024074B5242DA62FD
:10093000DC621A631C639A629C625A625C62FFF713
:10094000F0FF200010BDC0460010024070B5104BF3
:1009500005001978002901D1012070BDFA2080001E
:10096000FFF7CEFB0B4C01002068FFF7C9FB00F03E
:1009700065F8041EF0D1032DEED8020001202900F5
:10098000404200F031F8044B20001D60E5E7C0460E
:100990000400002000000020080000208023084AF6
:1009A0005B00116810B50B4303201360FFF7CEFF07
:1009B000041E03D1FFF76AFF200010BD0124FBE7EE
:1009C00000200240034A044B11681B785B18136037
:1009D0007047C0469C08002004000020014B1868A6
:1009E0007047C0469C08002010B5FF2403220B006E
:1009F00021000240D20091409B012340C943934013
:100A000000280ADBC0240B4A800880008018A4005C
:100A100002590A401343035110BD0F2210400838F9
:100A2000054A800880008018C26911401943C161DD
:100A3000F2E7C04600E100E000ED00E08022431E46
:100A40005204012093420DD2C021074A0748536047
:100A5000036A09061B021B0A0B43036200200723DB
:100A6000906013607047C04610E000E000ED00E0C9
:100A7000F7B50E009508AD006B1801930368019C53
:100A8000B44209D1032416002640224219D0012E77
:100A90000FD14A5D1A7014E03478777824063F0449
:100AA0003C43F7783C43B77804363F023C431C6034
:100AB000E5E76C18495D627809020A431A80022E44
:100AC00002D103681868FEBDA278E3E7F0B50D0017
:100AD000002600685408B44206D1D20702D5A4000B
:100AE000635A03800068F0BD2B886F881B043B436A
:100AF000036001360435EEE710B5041E01D1012074
:100B000010BD437FDAB2002B02D10277FFF7A0FBC2
:100B1000022363772379002B1CD118212368124A02
:100B20005A619A688A439A6062792368002A19D1C7
:100B3000013A60211A619A6800208A4361690A4378
:100B400080219A609A688A43A1690A439A600123C6
:100B50006377D5E72000E268A16800F045F8002837
:100B6000E2D0CCE72269E4E7B71DC10470B5040008
:100B70000120002C12D0637FD8B2022B0ED00223AA
:100B80000122002563772368200099680A439A6050
:100B90005D60FFF773FB28006577257770BD022342
:100BA00070B543770400036801209D68284398606E
:100BB000206A022814D0032805D001280CD0002078
:100BC0000123637770BD92008A18914201D11868A1
:100BD000F6E701C91860F8E72000FFF749FFEFE7E3
:100BE0002000FFF773FFEBE730B501250400280074
:100BF00029420FD01F23013B22D30800D8402842AE
:100C0000F9D0102A15D0102A05D8002A08D00120C2
:100C1000082A12D030BD0120182AFBD1062BF9D8A2
:100C200020684161182183688B431343836000204F
:100C3000F0E70120072BF3D9ECE70F2BEAD8EFE719
:100C40000120102ADFD1E5E70020054B5A698242D6
:100C500005DA044A9A60044A9A605869C00F7047DE
:100C60000020024023016745AB89EFCDF8B50400B1
:100C7000FFF7B4FE802706007F02144D2B693B422C
:100C800016D12A69124B11001248194028611A42E4
:100C900017D18027FF022B69180038403B420FD044
:100CA000631CF8D0FFF79AFE801BA042F3D306E046
:100CB000631CE3D0FFF792FE801BA042DDD303202C
:100CC000F8BD054B01205960FAE7C04600200240FC
:100CD000FA830000FB830000A0080020F7B5174E40
:100CE0000193337804000D0002200092012B1ED0E6
:100CF0000123FA203370002380007360FFF7B6FFF2
:100D0000002812D10E4F012C12D17B6923437B6145
:100D1000009B2B60BFF36F8F019B6B60FA208000FC
:100D2000FFF7A4FF7B69A3437B6100233370FEBD03
:100D30002800009900F060FAF0E7C046A008002003
:100D400000200240FA2010B58000FFF78FFF8022BC
:100D5000044B120659690A435A615869C043C00FCF
:100D600010BDC04600200240044A05485369C9002E
:100D700003401943034B0B4353617047002002406B
:100D800007E0FFFF02000100F7B5214F05003B78A7
:100D900002240191012B1AD00123FA203B70002379
:100DA00080007B60FFF762FF041E0ED104236B609E
:100DB0002B68042B0DD1FA20164A174B516980007D
:100DC0000B435361FFF752FF040000233B702000E8
:100DD000FEBD0123019A5B421360AE68AB68EA680E
:100DE0009B18B3420CD968683100FFF7BDFFFA20A9
:100DF0008000FFF73BFF002808D00400019B1E6025
:100E00000221044A53698B435361DEE70136E5E76B
:100E1000A008002000200240040001000023F0B5DB
:100E200085B00A681400DC4001D105B0F0BD012591
:100E300014009D402C4000942A4200D191E04A6861
:100E40005F0094460322644622400324BC40E443EE
:100E50000194541E012C2ED88668019C2640CC6833
:100E6000BC403443846044680126AC43250064469A
:100E7000240934409C402C434460C568019C2540B3
:100E80008C68BC402C43C460022A16D107250F266B
:100E90001D40AD00AE40DC08A40004190294246A91
:100EA00003962600039CA64334000E69AE402643F9
:100EB000029C266201E0032ADFD1BA400468019D4A
:100EC00025402A43C02402606246A402224248D040
:100ED000254A03259C08A400A4180F221D40ED00FC
:100EE000AA40A027266EFF0596430022B8420CD0E8
:100EF0001E4F0132B84208D01D4F0132B84204D013
:100F00001C4F0332B84200D1023AAA40674632432E
:100F10002266154C009A2668009DD2433543FF0295
:100F200001D435001540674625606668009D35434D
:100F3000BF0201D435001540674665600E4C009D28
:100F4000E66F3543BF0301D4350015406746E567BA
:100F50000A4C009EE56F2E43FF0301D415402E007E
:100F6000E66701335DE7C046001802400004005008
:100F700000080050000C00500818024004180240FD
:100F8000002A01D0816170478162FCE7F7B5020059
:100F900000260C682000F04000D1FEBD0120230097
:100FA000B0400340044233D0486803240090180046
:100FB00058434443009DE443013D012D0BD88D6807
:100FC0009768454327403D43CF6895605F43556828
:100FD0009D433D4355600D69D768454327403D43D8
:100FE000D560009D022D0DD14D690195FF2B11D8C3
:100FF00005000F2745436F43136ABB43019F6F43AF
:101000003B43136213682340009C60430343136017
:101010000136BEE70F271B0A5B435B435F43556AFC
:10102000BD43019F5F433D435562EBE70E4A03001A
:1010300090420BD180220D4B9203D96A0A43DA62A7
:10104000DA6A0B4900200A40DA627047094A012037
:101050009342FAD18022054BD203D96A0A43DA625D
:10106000DA6A0549EEE7C04600540040001002402D
:10107000FFFFDFFF00580040FFFFBFFF01220368B2
:1010800030B593430360CB688D681B0204682B4323
:10109000144D2C40234303604B680D6903610368C2
:1010A0001A4302608368104A1340836084688B6926
:1010B000E40A2B43E40223438360002D04D0802301
:1010C00084681B02234383600368084C23400C6838
:1010D00023430360436813404A691343436000207D
:1010E00030BDC046FFE0FFFFFF7FFFFFFFFFCFFFE8
:1010F0008022154B520019680A431A608022D200E0
:1011000019681142FCD05968104A11408022D2015E
:101110000A435A60002280219A600132FF321A602D
:10112000890218680842FCD11A608022920419686A
:10113000080010401142FAD180225201DA600122E7
:10114000524298611A62704700100240FF80FFFF10
:10115000094A82B013680193019B431C591E8B41BD
:10116000C01880235B02002801D102B070471168CB
:101170001942FCD00138F6E710E000E0014B18609E
:101180007047C0460000002003008218934200D13F
:10119000704719700133F9E770B500260C4C0D4DFE
:1011A000641BA410A64209D1002600F019F80A4CCD
:1011B0000A4D641BA410A64205D170BDB300EB58C4
:1011C00098470136EEE7B300EB5898470136F2E74F
:1011D00008120008081200080C1200080812000883
:1011E000F8B5C046F8BC08BC9E467047F8B5C04686
:1011F000F8BC08BC9E46704701B40248844601BC56
:10120000604700BF0D000020E1000008B9000008A1
:101210000024F400010000000400000080220C4BB8
:1012200030B55C69D20222435A61EFF3108272B684
:101230004C1CFF34401A0D68455004318C42FAD1E1
:101240008021490218690842FCD182F3108830BD20
:1012500000200240FFFFFFFFFFFFFFFFFFFFFFFF38
:10126000FFFFFFFFFFFFFFFFFFFFFFFFFFFFFFFF8E
:10127000FFFFFFFFFFFFFFFFFFFFFFFFFFFFFFFF7E
:10128000FFFFFFFFFFFFFFFFFFFFFFFFFFFFFFFF6E
:10129000FFFFFFFFFFFFFFFFFFFFFFFFFFFFFFFF5E
:1017F000FFFFFFFFFFFFFFFFFFFFFFFFFFFFFF01F7
:10180000002000209D400008E93E0008EB3E000853
:1018100000000000000000000000000000000000C8
:10182000000000000000000000000000ED3E000885
:101830000000000000000000EF3E0008F13E00083C
:10184000ED40000800000000ED400008ED400008F9
:10185000ED400008F93E0008ED400008ED400008AA
:1018600000000000ED400008ED400008053F0008C2
:10187000ED400008ED400008ED40000800000000C9
:10188000ED4000080000000000000000ED400008EE
:1018900000000000ED400008ED400008ED400008A9
:1018A00071360008ED400008ED400008ED400008EA
:1018B000ED4000080000000010B5064C2378002B16
:1018C00007D1054B002B02D0044800E000BF0123E4
:1018D000237010BD0401002000000000E451000846
:1018E000044B10B5002B03D00349044800E000BFAF
:1018F00010BDC0460000000008010020E4510008AF
:1019000003B47146490840004900095E49008E440D
:1019100003BC7047002243088B4274D303098B42F7
:101920005FD3030A8B4244D3030B8B4228D3030CAF
:101930008B420DD3FF22090212BA030C8B4202D351
:101940001212090265D0030B8B4219D300E0090A79
:10195000C30B8B4201D3CB03C01A5241830B8B4282
:1019600001D38B03C01A5241430B8B4201D34B036B
:10197000C01A5241030B8B4201D30B03C01A5241D0
:10198000C30A8B4201D3CB02C01A5241830A8B4255
:1019900001D38B02C01A5241430A8B4201D34B023E
:1019A000C01A5241030A8B4201D30B02C01A5241A2
:1019B000CDD2C3098B4201D3CB01C01A5241830956
:1019C0008B4201D38B01C01A524143098B4201D390
:1019D0004B01C01A524103098B4201D30B01C01ABB
:1019E0005241C3088B4201D3CB00C01A5241830835
:1019F0008B4201D38B00C01A524143088B4201D362
:101A00004B00C01A5241411A00D2014652411046C1
:101A10007047FFE701B5002000F006F802BDC046A0
:101A20000029F7D076E770477047C04670B50022AE
:101A30000C4B04000D0001F033FA002804D1200003
:101A4000290001F08FF970BD064B0022200029000B
:101A500000F0ECFD01F086F980231B069C466044F3
:101A6000F1E7C0460000E041F0B5DE464546574686
:101A70004E46E0B587B0009201930B031B0B9B46CB
:101A8000CA0F4B00040080465B0D029200D16AE150
:101A9000D44A934200D18CE15946420FC9000A430F
:101AA000802109041143C2009046CF4A89469246DC
:101AB0009A44002300240393009E019F3B031B0BC9
:101AC0009B467B0030005B0DFD0F002B00D128E111
:101AD000C44A934200D177E15946720FC9000A43C4
:101AE0008021090411438B46BF49F2008C465146C0
:101AF0006344CB1A9A460023029E6E400F2C27D8CF
:101B0000BA49A40009598F46CB464246029E039B20
:101B1000022B16D0032B00D1A6E2012B00D0DFE070
:101B200000220023002490461B052343F60733437D
:101B30004046190007B0F0BCBB46B246A946A046D5
:101B4000F0BD002200249046A64BEDE72E00DFE713
:101B5000CB4500D2D4E100D1CFE101235B429C46CA
:101B6000444648460027E2445B46150E1B021D43CF
:101B7000190C2B04120200951D0C9146029103953D
:101B8000FFF74EFF02006A430B04210C8046194305
:101B90008A4209D9009D0123AC465B4261449C46C0
:101BA000E0448D4200D8FBE1881A0299FFF738FF24
:101BB000039A240442430904240C03000C43A24268
:101BC00006D90099013B8C466444A14200D8E1E16A
:101BD000A01A424612041A4393464B4659461B0C20
:101BE0001D0004930B0449460904090C0C001B0C4E
:101BF0005C43120C6B43884651436A43250CAC4648
:101C00005B186344994203D9802149028C4662449F
:101C1000190C24041B04240C8A181C19904202D3AA
:101C200016D1A74214D25B46009D013B4F44059359
:101C30004F459B41AC465B426344C018854200D38C
:101C4000A1E1824200D9F6E100D1F1E1059B9B467A
:101C50003C1BA742BF41009D801A7F42C01B8542AA
:101C600000D1D0E10299FFF7DBFE039A0B04424357
:101C7000210C070019438A4200D978E1881A029999
:101C8000FFF7CEFE039A240442430904240C030008
:101C90000C43A24200D95DE14146A41A3A041A431A
:101CA000049D13041B0C594347466B439C46100C80
:101CB00047430B0CBC44634468439F4203D98025CF
:101CC0006D02AC4660441F0C09041B04090C3F184C
:101CD0005B18BC4200D202E100D1FDE001231A43AF
:101CE000434B5344002B00DCAEE0510700D098E199
:101CF0005946C90106D559463E4B194080238B46AB
:101D0000DB0053443C498B4200DD1AE75946D208B8
:101D1000490711435A465B0554028846240B5B0D64
:101D200002E75A46009B1A4300D17EE05B46002B37
:101D300000D100E1584601F0BDF8020003000B3A63
:101D40001D27009EBA1A19005846D6400839884007
:101D5000320002439346009A8A40284953448A46F7
:101D60009A440023C8E65B460343994656D05B4637
:101D7000002B00D1CDE0584601F09CF80B235B42CC
:101D80009C460200844466461D239B1B26001100CE
:101D90005846DE4008398840330003439946230003
:101DA0008B409846164B00249B1A9A4600230393B7
:101DB00082E65A46024391462AD100229A460223DD
:101DC00090460824039377E65A46009B1A430D4B2E
:101DD0009C46E244002A17D102231C4300239B4661
:101DE000023389E6FF07000001FCFFFF10520008E4
:101DF000FF030000FFFFFFFEFE070000F3030000EB
:101E00000DFCFFFF01F8FFFF032332001C4373E6C4
:101E10009A460323D9460C2403934DE600239846A3
:101E20009A4601330424039346E601231C4300230E
:101E30009B46013360E60023802498460026924B9F
:101E4000240371E6012252420121C91A382900DD1A
:101E500066E61F2900DCABE01F204042C31A58464B
:101E6000D8400300202904D058468849514488406E
:101E70000243511E8A411A430723190000241140CE
:101E800013420CD00F231340042B00D1F9E0111D95
:101E900091429B410A005B4259075B021C0BD2082E
:101EA0000A43904600233FE680244B462403234206
:101EB00009D05B46234206D11C4324032E009046E2
:101EC000714B240B30E680244B4624031C4324032F
:101ED000029E6D4B240B27E6002B00D100E70098F3
:101EE000511E84466444844200D284E0BC4200D245
:101EF000AEE000D1C1E00A00F0E6424500D92CE690
:101F00004B46DC07580843465B081C434346DF0743
:101F10002AE600F0CFFF15239C4684440200634666
:101F200020321C2B00DC2EE7230008388340994622
:101F30000023984636E700F0BDFF0200030015328B
:101F400020331C2A00DCFBE600990838814000227F
:101F50008B4602E70099013B8C466444A14200D9BC
:101F60009AE6A24200D897E6831E644494E6AC4603
:101F70006144013F8D4200D980E68A4200D87DE667
:101F8000871E61447AE6854200D05FE6B94500D9F4
:101F90005CE656E6A24200D81AE6831E644417E6C1
:101FA0008A4200D800E6AC46831E98466144FBE5B1
:101FB00037481400504482405B4617008340CC40B1
:101FC0007A1E974123433B431A005B46CB4051079F
:101FD00009D00F211140042905D0111D91429241D1
:101FE00052429B180A00190200D455E7002201232F
:101FF0000024904698E50A00BC4200D06EE64B45AE
:1020000000D06BE66CE6234B234A5344924500DA3A
:1020100018E7012149420A1D8A42894149428B44FD
:1020200066E60F211140042900D161E61100F2E7B4
:10203000BC4200D80AE602235B429C4600994F440A
:102040004F459B41E3448C465B426344C018FFE527
:102050004946009D480048458941AC464942614493
:102060008146023A6418C7E780245B4624031C4378
:1020700024039046044B240B56E59945E8D30A0007
:10208000BDE7002308E7C046FF0700003E0400004C
:102090001E040000FF03000002FCFFFFF0B55746DE
:1020A000DE464E464546E0B51F000B031B0B1600EF
:1020B0009A46CA0F4B000400934687B05B0D00D1CF
:1020C000D5E0BB4A934200D1F8E05146420FC90027
:1020D0000A43802109041143C2009146B54A8A4649
:1020E0009D180023984602933C037B00FA0F3000B2
:1020F000240B5B0D009200D196E0AD4A934231D0A3
:10210000720FE4002243802424041443A94AF000FF
:10211000944663445B195A1C0192424600260A2ADF
:1021200042DC5A4600994A4093464246022A32DC33
:10213000013A012A00D949E1022E00D1CAE0012E5C
:102140003DD100230024002210005A461B052343E2
:10215000D2071343190007B0F0BCBB46B246A946EC
:10216000A046F0BD924B2643EB18002E00D1BBE0F9
:102170000322414611435A46884600994A4080212D
:1021800009018C4629006144019141460A2900DD7C
:1021900033E293460326424601279740A6213A00A0
:1021A000C9000A400F4231D0029E022E00D135E212
:1021B000032E00D1D2E154464846012EC1D0019AE7
:1021C0007D4B94466344002B00DCC0E0420709D0FD
:1021D0000F220240042A05D0021D82428041404263
:1021E00024181000E20106D5744B019A1C4080238C
:1021F0009446DB006344724A93426BDC6207C0087A
:1022000064025B050243240B5B0D9DE7902189006E
:102210000F4263D188223A4200D1D7E0009BA24608
:102220009B4681460296BFE72300334300D17FE0FF
:10223000002C00D1ADE1200000F03CFE02000300C4
:102240000B3A1D201900821A30000839D0408C400A
:102250000443300088405B4AEB1A944663445A1C9E
:102260000192424600260A2A00DC5AE79CE75346C0
:102270000343994654D05346002B00D177E1504692
:1022800000F018FE0B235B429C46020084441100C0
:102290005046083988401D23804660461B1A20009E
:1022A000D8400300404603439A4623008B4099469A
:1022B0000023444D9846AD1A029315E75246024357
:1022C000914626D100221D000223924608329046F4
:1022D000029309E700240022354B35E700238024D0
:1022E0009B462403324B2FE70222414611438022B2
:1022F000120194462A006244884601920A2900DDB0
:1023000052E75A460020009904004A4093460226AC
:102310000BE70C221D000323814690460293E3E65F
:1023200000239A4604339846033B00250293DBE6DC
:10233000424601331A432B0090465A1C01924246F2
:102340000024002001260A2A00DCEAE62CE701220C
:10235000D21A382A00DDF4E61F2A00DC2AE11F2108
:102360004942CB1A2100D9400B00202A05D0164A39
:10237000019D94466544AC402043421E9041184361
:10238000072319000024014003420CD00F2303400F
:10239000042B00D140E1031D8342A4411800644294
:1023A00061076402240BC20800230A43CCE6C0463E
:1023B000FF07000001FCFFFFFF030000FFFFFFFE1F
:1023C000FE0700000DFCFFFF3E04000049464A46A0
:1023D0000904090C0D00160C020C0004000C454306
:1023E000AC4605007543A84615000F0075430092E2
:1023F00002952A00009D6F4365462D0CA94647446F
:102400004F44B84505D915008022520290464544F4
:1024100002953D0C039565462D043F042D0CAC46FA
:102420003D0065440495250C2404240CAC4625008D
:102430007543A84665460F00694341448946674392
:10244000390C49446E43884503D980225202904694
:1024500046440D0CA846350045440595039D3F04B0
:10246000A8463F0C0904C9198844454603955546BA
:102470002E04360C2F0C3500454378438146380036
:10248000A8462D0CAA46009A504372434A4452442F
:10249000914503D980256D02A9464844150CA946EB
:1024A00045462D042D0CA84665467D43120448443C
:1024B0009044A9463200654662436E437C43170C44
:1024C0003619BF19BC4203D980246402A446E144F2
:1024D000029C039EA446059D66448E428941AC46FB
:1024E00012043C04120CA218624449425418464497
:1024F000A4464645A44182466442A046AA4292416F
:102500008C458941E244D044494252420A43A045A5
:10251000A44182458941644249420C4341463F0CF3
:10252000D2191219CC0D049970020843411E88413A
:1025300041464A44F60D52023043490214430843CF
:10254000D20135D50122430802401343E007184366
:10255000640834E6009BA2469B468146802453468D
:1025600024031C4324034A462E4B240BECE500F0C5
:10257000A1FC15239C4684440200634620321C2B98
:1025800000DC84E6002399462300083883409A46FD
:102590008EE600F08FFC02000300153220331C2A67
:1025A00000DC4EE602003400083A0020944052E677
:1025B000019304E61C4B21009C460300019DD3407F
:1025C0006544A94019430300AB40581E8341194399
:1025D0000800D4404B0709D00F230B40042B05D033
:1025E0000B1D8B428041404224181800230200D466
:1025F000D6E6012300240022A6E50F29AAD18023D4
:1026000052461B031A42A9D01C42A7D11C43009B6F
:1026100002009B46034B97E50024C1E60024014BD2
:10262000220091E5FF0700001E040000F0B54E46B1
:102630004546DE465746E0B585B0009001910C0353
:102640004F00CE0F610A009CB046640F0C43009906
:102650007F0DC80011001A001B039C4600910192D7
:1026600051004B0D9946019B009DD90F63466A0F9F
:102670005B0A1343EA0094469346C14A03900293CF
:10268000914500D1CDE0012569404D467D1BAA460C
:102690008E4200D180E0002D00DC35E34946002960
:1026A00000D1DFE0974200D194E152460125382A5B
:1026B00019DC8022029B12041343029352461F2A04
:1026C00000DDE3E1534620226146029DD21A954087
:1026D000D9400D43614691400A00511E8A4115437D
:1026E000029ADA40A41A451BA84280414042241AAB
:1026F000230200D43DE16402640A002C00D147E1CA
:10270000200000F0D7FB0300083B20212800CA1A54
:10271000D0409C4002009D4022439F4200DD77E173
:10272000D81B0130091A2C008D40C4406B1E9D41FE
:102730001300C2408B402543002714001D436B0744
:1027400009D00F232B40042B05D02B1DAB42AD41EC
:102750006D4264191D00230200D440E1884A01370C
:10276000974200D101E1012643468649ED08214008
:102770004A072A437C054D022D0B640D1E4024059B
:102780002C43F60734431000210005B0F0BCBB46D3
:10279000B246A946A046F0BD002D00DCD0E2494675
:1027A000002900D0D4E06146029B194300D12BE1FF
:1027B000691E012D00D1D9E1954200D10AE1012520
:1027C000382917DC8A4653461F2B00DDE7E120221B
:1027D000D21A029B614693401D005346D94063467E
:1027E00093401A000D43511E8A4153461543029AE5
:1027F000DA40A4182D188542804140422418230253
:1028000000D4B6E05E4B01379F4200D1ADE001211C
:102810005C4B6A081C4029400A43E50715436408DD
:102820008DE7594A029B92466246BA441A432CD01D
:102830008E422ED05246002A60D0002F00D1DBE01D
:1028400063460E00029CD80862070243E4081300A6
:10285000234300D154E280252D0325432D03484C0A
:102860002D0B8CE76146029B194300D1CCE0290077
:102870000139012D00D188E1954200D1AAE001255E
:10288000382900DD2FE78A4618E7012251408E42A1
:10289000D0D15346002B00D1BEE0002F00D038E14C
:1028A000CA462200024300D1E2E15346591E012BE1
:1028B00000D10DE2324A924500D1D2E101273829F8
:1028C00013DC1F2900DDEEE12022029B521A2500B5
:1028D00007009A46CC4090409540CF40A244421E0B
:1028E000904153462F43074302933D00654465459D
:1028F0009241029B52424F46D41880E7234A7D1CE6
:10290000154200D0AAE062462500029B05431A4307
:10291000002F00D0F5E0002D00D16BE1002A00D19E
:1029200052E16346C51A029BE21AA8429B415B42F0
:10293000D31A1A0200D4D5E163461D1AAC45924160
:102940000126029B52421C1B8846A41A0E40F6E642
:1029500097423FD052460125382A00DD4AE78022BF
:10296000029B1204134302932DE73C000025002232
:1029700005E707232B40002B00D0E2E66BE0C046C2
:10298000FF070000FFFF7FFF01F8FFFFFE070000C9
:10299000280000F08FFA030018331F2B00DCB4E688
:1029A0002A00083882409F4200DDB9E0DB1B581C3A
:1029B0001F2800DCA0E115001F3BDD40202805D0CA
:1029C00040231B1A9A40531E9A41154307230027A0
:1029D0002B40D0E7C00862070243E40837E7EA0863
:1029E00063071A43D34BE4089F4200D12FE7240327
:1029F000250B7C05640DC2E6CA462200024358D16D
:102A000063460E00029C0393039B5746DA08E7E7F0
:102A1000C94CFF1A144092E6C84D7A1C2A4200D0D5
:102A200084E022000243002F00D0EFE0002A00D112
:102A3000E5E0624602990A4300D1C5E06346C51845
:102A40008C4685428041644440422418230202D5CA
:102A5000B94B01371C40BA460395D5E76246851A43
:102A6000A842924152429146029BE31A1A004B46F9
:102A7000D21A130091461A026CD44A464C462A4395
:102A800000D03AE600260024002578E60299534655
:102A90000D00203AD540202B06D04022D21A0B0040
:102AA000934062461A4393465B465A1E93411D4328
:102AB00019E653465A1E012B00D1C6E09D4EB24581
:102AC00000D1BDE688460E000125382A10DC1F2AF9
:102AD0007FDC20212500891A070088408D40D740DF
:102AE000D440411E8841029B3D431B1B054302937A
:102AF0006246551BAC459241029B52424F469C1A7E
:102B0000F6E5002D00D0B7E0002A00D1F0E0012664
:102B10000E4063460298D90842070A43C40896E665
:102B2000854CFF1A14406207E40860E781498A4235
:102B300000D1C9E06346C11881428041029B4042F6
:102B4000E3181B18DD075C08072349080D4317002D
:102B50002B4010E763461D1AAC4592410126029BAB
:102B600052421C1B8846A41A0E40C6E56346C5188F
:102B7000029B854280419C464042644424180127C0
:102B8000230200D4F5E6022741E66346C51AA842AF
:102B90008041029B4042E41A0127241AA8E5029DC5
:102BA00052462B00203AD34019005346202B06D022
:102BB0004022D21A2B00934062461A4393465D4648
:102BC0006B1E9D410D4315E66207C0080243E408F1
:102BD0000DE7110027002039CF40202A05D04021E1
:102BE0008A1A9440250005430395039D6A1E95416A
:102BF0003D437DE7002A00D144E701260E406346AD
:102C0000D908029B5A070A43DC08F0E6002A28D0BC
:102C10006246029FC0083A4300D1DCE662071043D7
:102C20008022E4081203144209D0FD08154206D19F
:102C3000634601262C00D8087B0718430E40420F3C
:102C4000C000C0085207024301E663461D1AAC45A6
:102C50009241029B52421C1B0E0088460127A41A77
:102C600046E56346D908029B5A070A43DC08EEE5AD
:102C70006346029C0393C7E6C008002A00D1AAE677
:102C8000620710438022E40812031442D7D0029F47
:102C9000FD081542D3D163460126D8087B072C00D6
:102CA00018430E40CBE70A002700203AD7402029DE
:102CB00005D04022521A9440250005430395039DF8
:102CC0006A1E95412F4310E614000025002256E5A8
:102CD000029B60449946604592414C445242050033
:102CE000A4184CE71A001C002A4300D0B3E6C9E63A
:102CF000802400262403AEE520210025091A17E5CB
:102D0000002200250B4C3AE5002D00D1F6E54B469C
:102D1000DA1B9246002F00D16FE6382A05DC8026A8
:102D20003604344388460E00D1E688460E0001255D
:102D3000DEE6C046FF070000FFFF7FFFFE07000042
:102D4000002D00D168E64B46D91B002F01D18A46E1
:102D5000A7E50127382900DDC7E5802212041443C6
:102D6000AFE5C0460B00020070B5164D0C0382B0F3
:102D70004900002000920193240B490DDE0FA94267
:102D800004DD1148814203DD104BF01802B070BD24
:102D90008020400320430E4C641A1F2C08DD0D4B8D
:102DA0005B1AD84003005842002EEFD11800EDE71F
:102DB000094B009A9C46030061448B40E240134358
:102DC000F1E7C046FE0300001D040000FFFFFF7F87
:102DD0003304000013040000EDFBFFFF70B5002872
:102DE00016D0C317C5185D40C40F280000F062F864
:102DF000104B1B1A5B055B0D0A2814DC02002E0029
:102E0000153296400B22121AD5402D032D0B03E0EC
:102E100000240023002500261B052B43E407234341
:102E20003000190070BD0B3885402D0300262D0B96
:102E3000F2E7C0461E0400008446100062468C463D
:102E40001900634600E0C0461FB500F009F90028EC
:102E500001D40021C8421FBD10B500F049F840421E
:102E6000013010BD10B500F0FBF8002801DB002098
:102E700010BD012010BDC04610B500F0F1F80028CB
:102E800001DD002010BD012010BDC04610B500F0CE
:102E900073F8002801DC002010BD012010BDC046E1
:102EA00010B500F069F8002801DA002010BD0120FB
:102EB00010BDC0461C2101231B04984201D3000C05
:102EC00010391B0A984201D3000A08391B0998429D
:102ED00001D30009043902A2105C40187047C046B3
:102EE00004030202010101010000000000000000D3
:102EF000F0B55746DE464E464546E0B50D000400A7
:102F0000E80F83460903D80F090B824619488C46FF
:102F10001F0369005E00490D3F0B760D814218D0FA
:102F200086420FD00120B1420DD1BC450BD1944255
:102F300009D1D3451CD0002905D160462043431E4A
:102F4000984100E00120F0BCBB46B246A946A0462D
:102F5000F0BD01208E42F6D1614639430F00174380
:102F60002743F0D15B465246981A431E9841EAE740
:102F70000020E8E7FF070000F0B557464E464546FB
:102F8000DE46E0B50D000F03390B83B00400804628
:102F900001915800E90F314F400D8C466E00190326
:102FA00082469146760D090BD80FBE421FD0BA4516
:102FB0000FD0002E2FD15546019E3443002D27D12E
:102FC0000A433AD0002C45D100281AD101204042B2
:102FD00017E011433BD1002E02D1019F2743F3D0CC
:102FE000844509D16346002BF0D0604609E0019F7B
:102FF00027432CD1B24524D063460220013B184020
:10300000013803B0F0BCBB46B246A946A046F0BDAD
:10301000002CD9D0E4E75446002CEDD08445EBD108
:103020005645E9DCDEDB019B8B42E5D8DAD1C845A9
:10303000E2D80020C845E4D2D4E70020002CE0D03C
:10304000DAE7114303D18445D6D10020D9E7022025
:103050004042D6E78445E6D0CEE7C046FF070000F1
:10306000F0B557464E464546DE46E0B50D000F0327
:1030700004008046E80F390B844683B05800304F77
:10308000400D01911E03690082469146490D360BA1
:10309000D80FB94220D0BA450FD000292BD10199C1
:1030A0000C435146002937D1324338D0002C44D14B
:1030B000002819D10120404216E0164313D10029FF
:1030C00002D1019F2743F3D0844520D063460220DC
:1030D000013B1840013807E0019F274303D18A458F
:1030E000F4D116431FD0022003B0F0BCBB46B24659
:1030F000A946A046F0BD5446002CE7D08445E5D152
:103100005145E3DC03DB019BB342DFD80FD06346BC
:10311000002BCFD06046E7E7002CC9D0D4E70020D1
:10312000002CE1D0D2E78445D0D10020DCE7C845AF
:10313000CCD80020C845D7D2E9E78445E3D0C5E71D
:10314000FF0700006021154B08205A68120C12047A
:103150000A4380215A60124A4902DA60114A9A6091
:10316000114A5160802189025160022219680A4384
:103170001A6080220D4B9200D9680A43DA608022DF
:10318000596C12020A430A495A644A6882434A60E7
:103190000122196A0A431A627047C0465800024069
:1031A0002001002034480140000002400048014056
:1031B000002C0140F0B585B002AB03910290187964
:1031C000FFF70CFE3D4C060025780F00EDB22800FD
:1031D000FFF704FE00223A4BFEF746FC02000B000C
:1031E00030003900FEF75AFFFEF720FCC3B200930F
:1031F00002AB5879FFF7F2FD25780600EDB2280002
:103200000F00FFF7EBFD00222D4BFEF72DFC020017
:103210000B0030003900FEF741FFFEF707FC02AB60
:10322000C7B29879FFF7DAFD26780400F6B23000CD
:103230000D00FFF7D3FD0022214BFEF715FC020025
:103240000B0020002900FEF729FFFEF7EFFB1822F4
:10325000C3B20193029B01245A431A4B1925D21879
:103260003426002307213800C91A084129002042CA
:1032700000D03100D1540133082BF3D10F200124A9
:1032800019253426009FC11A0F412900274200D07A
:103290003100D1540133102BF4D11720012419250A
:1032A0003426019FC11A0F412900274200D0310066
:1032B000D1540133182BF4D105B0F0BD53060020D2
:1032C000000059402001002010B5182200210248BA
:1032D00001F052FF10BDC046680100206021074A7E
:1032E00053681B0C1B040B435360012311681943E3
:1032F0001160034A11680B43136070475800024085
:103300000048014010B5124C002022786378A17863
:103310001B02134309041943FFF74CFFE17823799B
:1033200001201B020B43617909041943FFF742FF97
:10333000A179E37902201B020B43217A0904194386
:10334000FFF738FFFFF7C0FFFFF7C8FF10BDC0460B
:103350004A06002070B500250D4A280053781178E0
:1033600094781B020B4324041C432100FFF722FF27
:1033700021000120FFF71EFF21000220FFF71AFFA6
:10338000FFF7A2FFFFF7AAFF280000F0FFFE70BDC5
:103390005052000810B5FFF7D5FEFFF7DBFF10BD58
:1033A00007B50121074B0B209A6B0A439A639B6B6D
:1033B00000220B400193019B00F0FAFE0B2000F06D
:1033C00021FF07BD00100240F0B502250124A02610
:1033D00089B01422002103A801F0CEFE224B234F16
:1033E0005A6BF6052A435A635A6B38002A400192F9
:1033F000019A5A6B802122435A635B6B220023405F
:103400000293029B01F0C6F800223000042101F073
:10341000C1F88023380003A903930494059406950A
:1034200001F000F8882330005B0303A9049303959F
:10343000059400F0F7FF0423300003A903930494DC
:103440000595069500F0EEFF8023094A9B0211685E
:1034500005200B4313602100002200F0A9FE052087
:1034600000F0D0FE09B0F0BD001002400004005092
:1034700000000140F0B5012591B0344C1C22002120
:1034800009A801F079FE636BA0202B436363636B93
:1034900002262B400293029B802306271B0103A9CF
:1034A000C00503930496059606950795089701F0C5
:1034B000C7FB8023A0205B0103A9C00503930496EA
:1034C000059606950795089701F0BAFB8022C6215C
:1034D000FF20E36BD2031343E363E36B89001340E4
:1034E0000193019B1A4B5A5882435A50802252042E
:1034F0001A600023174D184A184C0A922A7809A915
:103500005200200009930B930C930D920E930F938E
:1035100001F00EFC802362689B0413436360E36840
:103520000F4A1340E360E3680E4A1340E3602368E8
:103530000D4A1340236023680C4A13402360287807
:10354000C0B200F015F811B0F0BDC0460010024046
:1035500000E100E0480600206621C100005800405C
:1035600001F8FFFFFF7FFFFFFFFFF7FFFFFFFDFFFA
:10357000024B4000C0B218707047C0469001002056
:1035800001220A4B19680A431A60082219680A4383
:103590001A60102219680A431A60802219680A43C7
:1035A0001A60202219680A431A60704700580040C8
:1035B0000821084B1A688A431A601A6849188A4316
:1035C0001A601A6870318A431A601A6860398A432F
:1035D0001A60704700580040962310B59B000C00FD
:1035E000994202D8002901D110BD1C000028FBD04F
:1035F000054B22000100180001F0EAFD0022034BF8
:103600001A80034B1C80EFE7940100208E010020FC
:103610008C010020054A138899B201339BB21380B4
:10362000034B044A5B6ADBB253547047920100209B
:1036300000580040EC030020094B0A491A8892B256
:103640008A5C0949D2B28A621A88013292B21A801F
:10365000064A19881288914201D300221A807047C5
:103660008E01002094010020005800408C010020B1
:1036700070B5474D474C2B6801332B602A68464B89
:103680009A4214D9200001F02BFB6368434A13408F
:1036900001226360236893432360236807329343C6
:1036A0002360FFF7E7FEFFF76BFF00232B60082284
:1036B000A369134228D0FF20A36939495B0C09781C
:1036C0005B00034099423BD1364D2B88002B0AD03A
:1036D000FFF76EFF2988344889B200F051F90023C2
:1036E0002B80FFF74DFF8022A369520213421BD1AA
:1036F0000823E2691343E361042322681343012290
:1037000023602A4B1A6070BD1023A2691A421BD194
:10371000A3699B071CD4A3695B071CD42023A2695F
:103720001A421BD1A369EEE7A169082311420BD00D
:10373000E2691343E3610223226813432360E2E753
:10374000E3691A43E261DEE7E2691343E361DAE722
:10375000FFF772FFD7E7FFF75DFFD4E7E269134396
:10376000E3610123A2691A4200D1A3610024FFF79B
:103770001FFF0C4D0C48298889B200F001F92C80FC
:10378000FFF7FEFE094B1C60094B1C60BBE7C046FF
:103790008801002000580040E02E0000FFFFFFFDE0
:1037A0009001002092010020EC0300208401002001
:1037B00080010020074B084A1A60084A1A6002225A
:1037C0005A60074A9A600722D9681142FCD1054A1B
:1037D0001A60704700300040CCCC00005555000006
:1037E000FF0F0000AAAA000080230D4A82B09B05AB
:1037F0000C49581819000068043308609342F7D147
:103800000121094B1A6C0A431A641B6C074A0B40CE
:103810000193019B032311680B43136002B07047AF
:10382000C0000020001800E8001002400000014025
:10383000012210B58021034800F0ACFE0122024BAA
:103840001A7010BD0004005056060020002210B56A
:103850008021034800F09EFE0022024B1A7010BD2A
:103860000004005056060020A020002210B50421BC
:10387000C00500F08FFE0022014B1A7010BDC0463B
:1038800055060020A020012210B50421C00500F03B
:1038900081FE0122014B1A7010BDC0465506002062
:1038A000022802D10122014B1A70704754060020F1
:1038B000F8B500F0AFFA2C4EFF282DD1012434705A
:1038C0003378012B2DD1FFF7B3FF00F0A9FA274D74
:1038D000FF2829D1002301342B70E4B22B78002B70
:1038E00026D1FFF7C1FFA0200221C00500F04CFE49
:1038F0001F4B00281FD1187000F098FA1D4FFF28A9
:103900001CD10A233B70307829783A78C9B2D2B2F8
:10391000C0B200F097FA16E000F07CFA0024307094
:10392000CEE7FFF793FFD0E700F07AFA2870D5E7EB
:10393000FFF7A8FFD7E701221A70DDE700F076FA5B
:103940003870002CDFD101220B4B1A7000F074FA92
:103950000A4CFF2804D1CC38207000F03DFAF8BDA5
:1039600000F06AFA2070FAE756060020550600209B
:103970005406002053060020490600204806002077
:10398000F0B500248FB00D0006000C22210003A822
:10399000029401F0F1FB012D00D8C3E03378A3427B
:1039A00013D1022D0CD17278012A09D88E4B1978C7
:1039B0008A4205D01A701B78012B03D1FFF738FF1C
:1039C0000FB0F0BDFFF742FFFAE7102B12D1022D26
:1039D000F6D17278012AF3D8844B19788A42EFD055
:1039E0001A701B78002B02D1FFF73EFFE8E7FFF7C4
:1039F00049FFE5E7302B0CD1022DE1D17378642B20
:103A0000DED87B4A11788B42DAD01370FFF77AFC4C
:103A1000D6E71F00403FFAB2082A36D80A2DCFD881
:103A2000013D06AB2A00D819711C01F0D1FB2A0018
:103A3000032502ABF818012101F09EFB06AB6D4F88
:103A4000009302AB1B5D002B11D0E6B230002900C1
:103A50000196FDF7E5FF0198CEB22900FDF75AFF68
:103A6000009BC0B268431B78002E07D13B54009BDB
:103A7000013401330093092CE3D1C7E73818012E34
:103A800001D14370F3E78370F1E7FF2B12D1022DD0
:103A900096D170780300083B6F2B00D990E7564B06
:103AA0001A78904200D18BE7187000F095F9FFF773
:103AB000E1FC85E7FD2B0FD1022D00D080E7737864
:103AC000002B00D17CE7BFF34F8F4C4B4C4ADA60A0
:103AD000BFF34F8FC046FDE7F02B00D070E7022DFB
:103AE00000D06DE77378012B00D069E700F092F900
:103AF0003D4E3E4D33783E4C984208D03078297880
:103B00002278C9B2D2B2C0B200F09CF958E700F0F6
:103B100087F92B789842F1D100F088F92378984200
:103B2000ECD14DE7012D00D04AE7307848282ED857
:103B30002F280DD8102830D0324B202803D02A4B04
:103B4000002800D03CE71B7806A8290003702EE06F
:103B50003038182800D933E7FDF7D2FE210032FFB4
:103B600032FF32FF32FF32FF32FF32FF32FF32FFCD
:103B700032FF32FF32FF32FF32FF32FF27002C00CC
:103B80002F003200350038003B003E004100FE2887
:103B900027D0194BFF28D6D012E7144BD3E7144B8C
:103BA00006A81B780370012101E009211148FFF7E5
:103BB00013FD05E708211448F9E707211348F6E744
:103BC00006211348F3E705211248F0E704211248C3
:103BD000EDE703211148EAE702211148E7E7114820
:103BE000E1E7114BAFE7C04656060020550600201E
:103BF000530600204A0600204806002000ED00E0A1
:103C00000400FA05540600204B0600204C06002054
:103C10004D0600204E0600204F06002050060020D2
:103C200051060020520600204906002010B592B02F
:103C30003422002105A801F09FFA1022002101A8DA
:103C400001F09AFA8020800000F0C0FC0A2305935E
:103C5000F6330893002309930E9308330F93C02380
:103C6000DB0240221093802302240A929B053F3AF4
:103C700005A80B920C940D94119300F0D3FC00282E
:103C800001D072B6FEE7072303900490210001A83B
:103C90000193029400F026FF002801D072B6FEE7DF
:103CA00012B010BDF8B50127FFF79EFD00F048FAED
:103CB000FFF7BCFFFFF788FBFFF772FBFFF77AFD0A
:103CC00000F03CF9FFF7F4FDFFF7D4FBFFF758FCD9
:103CD000FFF760FB1F4E002333601F4B1F4C1B6818
:103CE000002B0CD000F04CFA1D4D2B68984206D9E1
:103CF00023680133236000F043FA0A302860236808
:103D0000322B16D9174C200000F0EAFF6368164AE0
:103D10001340082263602368BB43236023689343F6
:103D20002360FFF7A7FBFFF72BFCFA20400000F011
:103D30002DFA0E4C2378012B07D1A0200221C005BB
:103D400000F022FC002800D12070094B094A1A60BB
:103D5000C1E7C046880100208401002080010020C6
:103D60004406002000580040FFFFFFFD54060020DD
:103D700000300040AAAA000070B505000C0000F059
:103D800067FA23002A000549012000F0ABFA04007D
:103D900063425C4100F0DAFAE0B270BD00780008DE
:103DA000002310B586B0019302330293F8231B065B
:103DB000C0180123C00A0593049000F049FA01A934
:103DC00002A800F0E5FA040063425C4100F0BEFA8C
:103DD000E0B206B010BD0000F8B504000B482206A2
:103DE0000668476835022D0A3E001543FFF7D8FFE5
:103DF00028003100FFF7C0FF0028F9D0044B1878E5
:103E0000201A43425841C0B2F8BDC04600780008AD
:103E100003780008014B1878C0B27047007800089A
:103E2000014B1878C0B2704701780008014B187830
:103E3000C0B2704702780008014B1878C0B27047D2
:103E400003780008F7B506000D00140072B6154F90
:103E5000FF233868796802009A431300124A3343FB
:103E600013402A021343114A38001340220413431B
:103E700000930191FFF794FF00980199FFF77CFFF1
:103E80000028F9D062B63B7800209E4209D1084B49
:103E90001B789D4205D1074B1B78E41A63425C41B5
:103EA000E0B2FEBD00780008FF00FFFFFFFF00FF4B
:103EB000017800080278000801210A4B82B01A6CD0
:103EC0000A431A641A6C0A4080210092009ADA6B45
:103ED00049050A43DA63DB6B0B400193019B02B097
:103EE0007047C04600100240FEE7FEE7704770478B
:103EF00010B500F039F910BD10B5022000F052FBEA
:103F000010BD00008022094B9202196811420CD0AA
:103F100080214902596001215A60054A13688B4388
:103F20001360044A13688B4313607047000002401B
:103F3000580002400048014070470000F0B50E23D1
:103F400000242027A3B06B443A0021000EA81C8057
:103F500001F012F92100302216A801F00DF921001C
:103F6000182208A801F008F98022434DD2022B6CD8
:103F7000424913432B642B6C03AE13400293029B04
:103F80003F230A689A43103B13430B603C4B3D4A66
:103F90001968114010220A431A601A683A490A4007
:103FA00040211A601A68BA431A601A68374F8A4368
:103FB0001A601A6849188A430A431A601968344A11
:103FC00038001140802252000A431A601A683149B1
:103FD0000A401A604F2331003480059304940694FC
:103FE000079400F0DFFE80213B682B4E8B433B6043
:103FF0000823326838001343336060230EAA7F39E8
:104000000E930F9410941194129413941494159485
:1040100000F008FF042233683800934333606B4696
:1040200060329B181C706B4602329B181C808023E8
:104030009B011A9316AB19001694179418941B94AD
:10404000219401F04BF801226B6B802113436B63C9
:104050006B6BA02013400193019B022308910993ED
:1040600008A90333C0050A940B940C940D9300F037
:10407000E7FD23B0F0BDC04600100240100802402A
:1040800058000240EFBFFFFFFFCFFFFF0048014095
:10409000FFFCFFFFFFF3FFFF184801400D48854676
:1040A000FFF74AFF0C480D490D4A002302E0D4589F
:1040B000C4500433C4188C42F9D30A4A0A4C002372
:1040C00001E013600432A242FBD301F05DF8FFF778
:1040D000E9FDFEE700200020C000002004010020D0
:1040E0009C5200080401002078060020FEE7000032
:1040F00070B5104B05001978002901D1012070BD61
:10410000FA208000FDF706FC0B4C01002068FDF74B
:1041100001FC00F083F8041EF0D1032DEED802005C
:1041200001202900404200F043F8044B20001D60AC
:10413000E5E7C046C4000020C0000020C800002001
:104140008023084A5B00116810B50B4303201360FD
:10415000FFF7CEFF041E03D1FFF7AEFE200010BD17
:104160000124FBE700200240034A044B11681B783E
:104170005B1813607047C04658060020C40000203A
:10418000014B18687047C0465806002070B50400FF
:10419000FFF7F6FF0500631C02D0044B1B78E41800
:1041A000FFF7EEFF401BA042FAD370BDC400002011
:1041B00010B5FF2403220B0021000240D2009140E1
:1041C0009B012340C943934000280ADBC0240B4ACB
:1041D000800880008018A40002590A40134303514C
:1041E00010BD0F2210400838054A80088000801852
:1041F000C26911401943C161F2E7C04600E100E025
:1042000000ED00E0002805DB1F2318401E3B834023
:10421000014A13607047C04600E100E08022431E5F
:104220005204012093420DD2C021074A074853602F
:10423000036A09061B021B0A0B43036200200723C3
:10424000906013607047C04610E000E000ED00E0B1
:104250000020054B5A69824205DA044A9A60044AF2
:104260009A605869C00F70470020024023016745DB
:10427000AB89EFCDF8B50400FFF782FF8027060079
:104280007F02144D2B693B4216D12A69124B110053
:104290001248194028611A4217D18027FF022B6962
:1042A000180038403B420FD0631CF8D0FFF768FF7E
:1042B000801BA042F3D306E0631CE3D0FFF760FF4E
:1042C000801BA042DDD30320F8BD054B01205960BF
:1042D000FAE7C04600200240FA830000FB8300009A
:1042E0005C060020F7B5174E0193337804000D00EB
:1042F00002200092012B1ED00123FA2033700023EC
:1043000080007360FFF7B6FF002812D10E4F012C1A
:1043100012D17B6923437B61009B2B60BFF36F8FBE
:10432000019B6B60FA208000FFF7A4FF7B69A34329
:104330007B6100233370FEBD2800009900F060FF10
:10434000F0E7C0465C06002000200240FA2010B5CD
:104350008000FFF78FFF8022044B120659690A4341
:104360005A615869C043C00F10BDC04600200240CA
:10437000044A05485369C90003401943034B0B43E2
:10438000536170470020024007E0FFFF0200010078
:10439000F7B5214F05003B7802240191012B1AD07B
:1043A0000123FA203B70002380007B60FFF762FF4F
:1043B000041E0ED104236B602B68042B0DD1FA2050
:1043C000164A174B516980000B435361FFF752FFA8
:1043D000040000233B702000FEBD0123019A5B42D4
:1043E0001360AE68AB68EA689B18B3420CD9686882
:1043F0003100FFF7BDFFFA208000FFF73BFF0028E8
:1044000008D00400019B1E600221044A53698B43BB
:104410005361DEE70136E5E75C060020002002403C
:10442000040001000023F0B585B00A681400DC40E8
:1044300001D105B0F0BD012514009D402C40009431
:104440002A4200D191E04A685F0094460322644604
:1044500022400324BC40E4430194541E012C2ED876
:104460008668019C2640CC68BC4034438460446824
:104470000126AC4325006446240934409C402C436B
:104480004460C568019C25408C68BC402C43C460D6
:10449000022A16D107250F261D40AD00AE40DC08CC
:1044A000A40004190294246A03962600039CA643E0
:1044B00034000E69AE402643029C266201E0032AC6
:1044C000DFD1BA400468019D25402A43C024026020
:1044D0006246A402224248D0254A03259C08A40033
:1044E000A4180F221D40ED00AA40A027266EFF054C
:1044F00096430022B8420CD01E4F0132B84208D079
:104500001D4F0132B84204D01C4F0332B84200D1D3
:10451000023AAA40674632432266154C009A266842
:10452000009DD2433543FF0201D435001540674654
:1045300025606668009D3543BF0201D435001540F3
:10454000674665600E4C009DE66F3543BF0301D49E
:10455000350015406746E5670A4C009EE56F2E431F
:10456000FF0301D415402E00E66701335DE7C04626
:10457000001802400004005000080050000C0050D9
:10458000081802400418024000690840431E984180
:10459000C0B27047002A01D0816170478162FCE798
:1045A0007047000070B5084D0400EB68184202D057
:1045B000E860FFF775F92B69234203D020002C61D6
:1045C000FFF7EEFF70BDC0460018024010B5114C59
:1045D0001149236802000B4003432360802300201D
:1045E0009B009A420ED10D4B0D4918680623584383
:1045F000FDF790F98022431CD20061690800104049
:10460000114200D110BD002B01D0013BF5E7032082
:10461000F8E7C04600700040FFF9FFFFC00000202F
:1046200040420F00F0B5040085B0002802D10120FF
:1046300005B0F0BD0368DB0710D423689B075CD48A
:1046400023681B0700D5C1E023685B0700D5F2E0B3
:10465000E369002B00D079E10020E9E73822AF4D73
:10466000AB681340EA68102B09D1D3439B0708D1EC
:104670002B689B03E1D56368002BDED1D7E7082BBD
:10468000F6D0802263685202934211D12A68134304
:104690002B60FFF775FD80270600BF022B683B42A9
:1046A000CBD1FFF76DFD801B6428F7D90320BFE74E
:1046B000A021C9028B4208D180232968DB020B4369
:1046C0002B602B681A432A60E3E72A6894490A4062
:1046D0002A602A6893490A402A60002BD9D1FFF743
:1046E0004FFD80270600BF022B683B42A5D0FFF795
:1046F00047FD801B6428F7D9D8E73822874DAB687F
:104700001340EA68102B28D103210A40022A26D13F
:104710002A68520503D5E268002A00D187E7696854
:1047200062698148120201400A436A60002B0CD181
:104730002B687E4A7E491340226913432B602B6805
:104740007C4A9B045B0FDA400A607B4B1868FFF7DA
:10475000CFFC002800D173E769E7002BD8D0E368CD
:10476000002B20D02B68714A802713402269FF005C
:1047700013432B6080232A685B0013432B60FFF7F1
:10478000FFFC06002B683B4207D06A6863696649F4
:104790001B020A4013436B6052E7FFF7F1FC801BDA
:1047A0000228EFD982E72B68644A802713402B60E8
:1047B000FFF7E6FC0600FF002B683B4200D13FE715
:1047C000FFF7DEFC801B0228F6D96FE73822534D35
:1047D000AB681340182B08D12B6E9B0700D433E72E
:1047E000A369002B00D02FE721E7A2690123002A4B
:1047F00010D02A6E022713432B66FFF7C1FC060078
:104800002B6E3B4200D01FE7FFF7BAFC801B02284B
:10481000F6D94BE72A6E02279A432A66FFF7B0FCC7
:1048200006002B6E3B4200D10EE7FFF7A9FC801B70
:104830000228F6D93AE73822384DAB681340202BCE
:1048400008D1EB6D9B0700D402E7A368002B00D0D2
:10485000FEE6ECE680220021EB6B5205009113424C
:1048600008D1EB6B1343EB63EB6B13400393039B98
:10487000012300938027324E7F0033683B4215D0DE
:10488000A368012B22D1EA6D1343EB65FFF778FC97
:1048900002270600EB6D3B4238D0009B012B00D075
:1048A000D6E6EB6B274A1340EB63D1E633683B4314
:1048B0003360FFF765FC019033683B42E0D1FFF7BE
:1048C0005FFC019BC01A0228F6D9EFE6EA6D052BC2
:1048D00005D1013B1343EB65EA6D0123D4E70121C8
:1048E0008A43EA65EA6D03318A43EA65002BCDD13C
:1048F000FFF746FC02270600EB6D3B42CDD0FFF7E9
:104900003FFC114B801B9842F6D9CFE6FFF738FCED
:104910000D4B801B9842BDD9C8E6C046001002402E
:10492000FFFFFEFFFFFFFBFFFF80FFFFFFC7FFFF53
:10493000C00000200024F400C8000020FFFEFFFF9C
:1049400000700040FFFFFFEF8813000038213F4D4B
:10495000AA680A40102A51D03D4A022B38D12B6850
:10496000802713402B60FFF70BFC0600BF042B6869
:104970003B4227D1616A236AEA680B4335498026A6
:104980000A401343E26AB6041343226B1343A26A3C
:1049900012021343EB6080232A685B0413432B60ED
:1049A0008023EA685B051343EB60FFF7E9FB040033
:1049B0002B68334200D04FE6FFF7E2FB001B0228D2
:1049C000F6D973E6FFF7DCFB801B0228CFD96DE632
:1049D0002B68802613402B60FFF7D2FB0400B6043F
:1049E0002B68334204D1EB681B4A1340EB6033E67B
:1049F000FFF7C6FB001B0228F2D957E6012B00D1B6
:104A000015E60322E868216A02408A4200D00EE6D9
:104A10007022616A02408A4200D008E6FE21A26A42
:104A2000C90101401202914200D000E6F822E16A79
:104A3000920302408A4200D0F9E5236B400F400701
:104A4000C01A431E9841C0B2F2E5C04600100240B1
:104A5000FFFFFFFE8C80C11FFCFFFEEF382370B507
:104A60001D4CA2681A4205D123681C489B045B0FA9
:104A7000D84070BDA2681A40082A27D0A2681A4000
:104A8000102A17D1E368E168DB43E5684906490F5E
:104A90006F322D0A013115409B0709D11048FCF7F0
:104AA00039FFE1686843490F0131FCF733FFE0E764
:104AB0000A48F4E7A2681A40202A09D0A268002018
:104AC0001340182BD5D1FA20C001D2E70448D0E713
:104AD00080200002CDE7C046001002400024F40010
:104AE00000127A00F7B504000D00002801D1012062
:104AF000FEBD07274A4E33683B408B422AD32268CB
:104B000093073BD4D20748D4072733683B40AB42D6
:104B10000AD93368BB432B433360FFF731FB019065
:104B200033683B40AB426BD123683E4D5B076FD48B
:104B3000FFF794FFAB683C491B051B0F9B005B58BC
:104B40001F210B40D840394A394B10601868FFF7D5
:104B5000CFFACDE73368BB430B433360FFF710FB5D
:104B6000019033683B40AB42C9D0FFF709FB019B82
:104B7000C01A304B9842F4D90320B9E729495307AA
:104B800004D5E0238868DB0103438B608B682A48E7
:104B90000340A06803438B60B4E76268214F012A99
:104BA00019D13B689B03A2D50721BB688B431343F4
:104BB000BB60FFF7E5FA01903823BA681A406368D2
:104BC000DB009A42A0D0FFF7DBFA019BC01A194B19
:104BD0009842F1D9D0E7022A03D13B689B01E3D484
:104BE00085E7002A03D13B685B05DDD47FE702231C
:104BF000032A03D1396E1942D6D178E7F96DFAE765
:104C0000FFF7BEFA019BC01A0A4B984288D9B3E756
:104C1000AB680A4A1340E2681343AB6088E7C046BA
:104C2000002002400010024054520008C000002042
:104C3000C800002088130000FFF0FFFFFF8FFFFF78
:104C4000F7B5020000260C682000F04000D1FEBD40
:104C500001202300B0400340044233D048680324BD
:104C60000090180058434443009DE443013D012D4A
:104C70000BD88D689768454327403D43CF689560C2
:104C80005F4355689D433D4355600D69D768454373
:104C900027403D43D560009D022D0DD14D69019502
:104CA000FF2B11D805000F2745436F43136ABB4301
:104CB000019F6F433B43136213682340009C604392
:104CC000034313600136BEE70F271B0A5B435B43B8
:104CD0005F43556ABD43019F5F433D435562EBE728
:104CE0000E4A030090420BD180220D4B9203D96AE9
:104CF0000A43DA62DA6A0B4900200A40DA62704736
:104D0000094A01209342FAD18022054BD203D96A85
:104D10000A43DA62DA6A0549EEE7C0460054004009
:104D200000100240FFFFDFFF00580040FFFFBFFF01
:104D30000122036830B593430360CB688D681B0282
:104D400004682B43144D2C40234303604B680D69CA
:104D5000036103681A4302608368104A134083604A
:104D600084688B69E40A2B43E40223438360002DAB
:104D700004D0802384681B02234383600368084CAB
:104D800023400C6823430360436813404A6913437C
:104D90004360002030BDC046FFE0FFFFFF7FFFFF04
:104DA000FFFFCFFF10B5194C0368A04202D0184A8C
:104DB000904208D1702293434A681343A0420BD01B
:104DC000134A904208D0134A904205D0124A9042AA
:104DD00002D0124A904203D1114A1A40CB681343C1
:104DE00003608B68C3620B888362A04205D00A4BC4
:104DF000984202D0094B984201D10B690363012309
:104E0000426913434361002010BDC046002C01409D
:104E100000040040002000400044014000480140E0
:104E2000FFFCFFFF802370B55B01994200D1DFE0FA
:104E30000BD8102900D16DE080235B00994200D18E
:104E4000A0E0012932D0012070BD80235B0299428D
:104E500000D1F5E080235B039942F4D1036A8C4DC5
:104E60008C492B400362046A436D0B4011680902B0
:104E70001943894B1C4013691B05234354682B407D
:104E800024052343854CA04205D0854CA04202D086
:104E9000844CA04206D145689469834EA4023540F3
:104EA0002C434460D2684165C26530E0036A7F4E9E
:104EB0008B430362036A446885693540166835434D
:104EC0000226B343166933438B4351680B4373493E
:104ED000884205D07249884202D07249884212D174
:104EE00008218B435169890019430423994393682E
:104EF0009B000B436E492140946921436D4C214036
:104F0000D46964000C43D2684460856142630362E3
:104F1000002099E7036A684C8B430362066A436882
:104F200085692540146824022C432025AE43156969
:104F30002D0135438D43290055682D010D435749F7
:104F4000884205D05649884202D05649884213D13A
:104F500080218D435169890129434025A9439568E2
:104F6000AD010D4355490B40916989001943544BDC
:104F70001940D369DB000B434360D36884618363CA
:104F80000562C5E7036A4A4E484933400362056A31
:104F90004368C4690C4011680C4346490D401169CF
:104FA00009022943556831402D020D433B4988428F
:104FB00005D03B49884202D03A49884213D1404942
:104FC0000D405169890229433C4D29409568AD0245
:104FD0000D433C490B409169090119433A4B194073
:104FE000D3695B010B434360D368C461C363C7E704
:104FF000036A344E304C33400362056A4168C3692A
:105000002340146824021C432F4B1D4013691B03CB
:105010002B43556833402D032B43204DA84205D028
:105020001F4DA84202D01F4DA84204D1274D0D406C
:10503000916989012943D2684160C461026466E7CD
:10504000036A234C23400362056A224B416D1940D9
:1050500013681943204B1D4013691B042B435568EB
:1050600023402D041D430D4B984205D00C4B984214
:1050700002D00C4B984205D14668936934401B021C
:1050800023434360D3684165826D836578E7C046FA
:10509000FFFFEFFFFF8FFFFEFFFFDFFF002C014050
:1050A0000044014000480140FFFFFBFF8CFFFEFF72
:1050B000FFFEFFFFFFFDFFFFFF8CFFFEFFFBFFFF7B
:1050C000FFF7FFFFFFEFFFFFFFDFFFFFFFBFFFFF68
:1050D000FFFFFEFF8FFFFEFFFFFFFDFF8B680A7BD8
:1050E0001A43194B1A404B681A43184B1A400B6865
:1050F0001A43174B1A40CB891343164A13400A69C7
:105100001343154A1340CA6A1343144A13404A69A9
:105110001343134A13408A691343124A90420FD132
:10512000114A13404A6A1343104A1340CA69134391
:105130000F4A13400A6A13430E4A13408A6A134304
:10514000436400207047C046FFFBFFFFFFF7FFFFEF
:10515000FFEFFFFFFFDFFFFFFFBFFFFFFFFFF0FFDE
:10516000FFFFFFEF002C0140FFFF0FFFFFFFFFFEDF
:10517000FFFFFFFDFFFFFFDF03008218934200D116
:10518000704719700133F9E770B500260C4C0D4DCE
:10519000641BA410A64209D1002600F023F80A4C93
:1051A0000A4D641BA410A64205D170BDB300EB5894
:1051B00098470136EEE7B300EB5898470136F2E71F
:1051C0009452000894520008985200089452000823
:1051D000002310B59A4200D110BDCC5CC4540133F9
:1051E000F8E70000F8B5C046F8BC08BC9E4670471A
:1051F000F8B5C046F8BC08BC9E46704700000000E9
:1052000001B40248844601BC604700BFCD000020C5
:10521000501B0008421B0008201B00084C1B000804
:10522000201B0008361E0008201B00084C1B00082D
:10523000421B0008421B0008361E00084C1B0008D9
:10524000081B0008081B0008081B0008A81E00080F
:10525000000000000000000000000000000000004E
:10526000000000000000000000000000000000003E
:105270000000000001000000020000000300000028
:105280000400000006000000070000000800000005
:1052900009000000E1180008B91800080024F40013
:1052A000010000000400000080220C4B30B55C6956
:1052B000D20222435A61EFF3108272B64C1CFF34C3
:1052C000401A0D68455004318C42FAD180214902C0
:1052D00018690842FCD182F3108830BD00200240DA
:1052E000FFFFFFFFFFFFFFFFFFFFFFFFFFFFFFFFCE
:1052F000FFFFFFFFFFFFFFFFFFFFFFFFFFFFFFFFBE
:10530000FFFFFFFFFFFFFFFFFFFFFFFFFFFFFFFFAD
:10531000FFFFFFFFFFFFFFFFFFFFFFFFFFFFFFFF9D
:1077F000FFFFFFFFFFFFFFFFFFFFFFFF0122DB6730
:10780000FFFFFFFFFFFFFFFFFFFFFFFFFFFFFFFF88
:10781000FFFFFFFFFFFFFFFFFFFFFFFFFFFFFFFF78
:10782000FFFFFFFFFFFFFFFFFFFFFFFFFFFFFFFF68
:10783000FFFFFFFFFFFFFFFFFFFFFFFFFFFFFFFF58
:00000001FF
